:020000040800F2
:10000000886F02200D0200089F2C0008D9270008E5
:100010009D2C0008AD0E00082D3F000800000000D8
:10002000000000000000000000000000B5320008E1
:10003000A30F000800000000E12C00080D370008A5
:1000400027020008270200082702000827020008EC
:1000500027020008270200082702000827020008DC
:1000600027020008270200082702000827020008CC
:1000700027020008270200082702000827020008BC
:1000800027020008270200082702000827020008AC
:10009000270200082702000827020008270200089C
:1000A000270200082702000827020008270200088C
:1000B000270200082702000827020008270200087C
:1000C000270200082702000827020008270200086C
:1000D00027020008213F0008270200082702000825
:1000E000270200082702000827020008270200084C
:1000F000270200082702000827020008270200083C
:10010000270200082702000827020008270200082B
:10011000270200082702000827020008270200081B
:10012000270200082702000827020008270200080B
:1001300027020008270200082702000827020008FB
:1001400027020008270200082702000827020008EB
:1001500027020008270200082702000827020008DB
:1001600027020008270200082702000827020008CB
:1001700027020008270200082702000800000000EC
:1001800027020008270200082702000827020008AB
:10019000270200082702000827020008270200089B
:1001A000270200082702000827020008270200088B
:1001B000270200082702000827020008270200087B
:1001C000270200082702000800000000270200089C
:1001D000270200082702000827020008270200085B
:1001E000270200082702000827020008270200084B
:1001F0002702000827020008DFF80CD000F0D8FA28
:1002000000480047156A0008886F022006488047AA
:1002100006480047FEE7FEE7FEE7FEE7FEE7FEE7EB
:10022000FEE7FEE7FEE7FEE7B1370008F901000848
:100230002DE9F05F0546002092469B46884606461B
:10024000814640241BE0284641464746224600F0AE
:1002500098F853465A46C01A914110D31146184691
:10026000224600F07FF82D1A67EB01084F46224620
:100270000120002100F076F817EB00094E41201E06
:10028000A4F10104DFDC484631462A464346BDE876
:10029000F09F40EA01039B0703D009E008C9121F41
:1002A00008C0042AFAD203E011F8013B00F8013B30
:1002B000521EF9D27047D2B201E000F8012B491E5C
:1002C000FBD270470022F6E710B513460A460446F3
:1002D0001946FFF7F0FF204610BD30B50446002058
:1002E000034600E05B1C934203D2E05CCD5C401B04
:1002F000F8D030BD70B50F4D00B92868002412E069
:100300000A4602E09E4203D0521C1378002BF9D11A
:10031000DAB2224305D02BB124B1002100F8011B31
:1003200004E00446401C0678002EE9D128602046EF
:1003300070BD0000A40A002030B50B460146002025
:100340002022012409E021FA02F59D4205D303FA97
:1003500002F5491B04FA02F52844151EA2F1010218
:10036000F1DC30BD202A04DB203A00FA02F1002043
:1003700070479140C2F1200320FA03F319439040E3
:100380007047202A04DB203A21FA02F0002170474E
:1003900021FA02F3D040C2F12002914008431946ED
:1003A000704700000FB4002300B589B00CA900917C
:1003B0000B996FF00042CB601E4B06931E4B0793C8
:1003C0000423CDE901321D4A089202466B46002003
:1003D00000F0ACFA09B05DF814FB70B586B00646C3
:1003E0004FF0FF300091CDE90101002015460C4689
:1003F00004903246694604A8FFF7D4FF02460498E9
:10040000211825B108B1084600E02046286004986C
:1004100000280DD0002A02DD0098884208D0081B71
:100420000094CDE901043246694604A8FFF7BAFFFB
:1004300006B070BD650B0008830B0008F9070008C3
:100440002DE9FE4F804681EA0300C00F0C46009064
:1004500021F0004123F00045B8EB0200A94105D28C
:100460004046214690461C460B46024623F000407B
:10047000104347D0270DC7F30A00C3F30A51029077
:10048000401A019040286BDAC3F3130040F4801B3C
:100490000098924620B10023D2EB030A63EB0B0BCA
:1004A00001985946C0F140025046FFF75BFF0646EF
:1004B0000D4650465946019A00F08CF910EB0800A1
:1004C0006141002487EA115284EAE7731A4340D05D
:1004D000009A62B3019A012A4FEA075215DC001B09
:1004E00061EB02014FF0004202EA0752CDE90042FF
:1004F000001C41F5801132462B4600F099FB03B0F9
:10050000BDE8F08F40462146F9E7001B61EB020190
:10051000001C41F5801300185B412018A2F500175C
:1005200047EB030140EAD570B6196D4111E06D0843
:100530004FEA360645EAC0754FEA0752001B61EBE9
:100540000201001C41F5801149084FEA30000019F2
:10055000514132462B4603B0BDE8F04F00F059BB85
:100560000098012240000023D0EB020263EBE0730D
:10057000009821464FEAE074B8EB000061EB0401FB
:10058000E9E783F000435BE781F0004158E72DE99C
:10059000FE4F81EA030404F0004421F0004100947E
:1005A0004FF0000B23F0004350EA01045ED052EA02
:1005B00003045BD0C3F30A54C1F30A552C44A4F2DC
:1005C000F3340194A0FB0254C1F3130141F48011F0
:1005D000C3F3130343F4801301FB024400FB034EF7
:1005E000840A970A44EA815447EA8357A4FB0768C0
:1005F00002958D0A05FB07854FEA932C04FB0C54EA
:100600002705029D4FEA065847EA1637B5EB08055D
:100610006EEB070C870E920E47EA811742EA8312AF
:10062000A7FB0201B6EB0B0164EB00042B0D43EAC0
:100630000C335E1844EB1C50DA465146E7FB0201CE
:10064000C5F313044FEA0B3343EA14534FEA043261
:10065000019C43EA0603A4F10C040294009CCDE93A
:1006600000B400F0E5FA03B0BDE8F08F00200146C9
:10067000F9E72DE9F04D81EA030404F0004B21F085
:10068000004514464FF0000A23F0004150EA0502ED
:1006900020D054EA01021DD0C5F30A570246C5F323
:1006A0001303C1F31300C1F30A5640F4801543F459
:1006B0008013A7EB0608101BD64608F2FD3873EB33
:1006C000050002D308F1010801E092185B41B8F17E
:1006D000000F03DA00200146BDE8F08D00204FF442
:1006E0008011064684460EE0171B73EB050705D301
:1006F000121B63EB050306434CEA010C49084FEA61
:10070000300092185B4150EA0107EDD152EA030034
:1007100012D082EA040083EA0501084305D0101BC9
:10072000AB4106D20122002306E000224FF0004335
:1007300002E06FF0010253101AEB06004CEB085177
:1007400010EB0A0041EB0B01BDE8F04D00F061BA7F
:10075000C1F30A52C1F3130140F2FF3341F4801197
:100760009A4202DA00200146704740F233439A422F
:10077000A2F2334202DC5242FFF703BEFFF7F2BDA2
:1007800030B5041E71F1000404DB4FF00044404218
:1007900064EB0101141E73F1000405DB1C464FF0ED
:1007A0000043524263EB0403994208BF904230BDBC
:1007B000064C074D06E0E06840F0010394E80700AE
:1007C00098471034AC42F6D3FFF71AFD58A7030838
:1007D00078A70308202A06DBCB17203A41FA02F05B
:1007E00043EAE07306E041FA02F3D040C2F120028E
:1007F0009140084319467047C0B24FF4F05100F0E1
:1008000065BA00002DE9FF4F087883B09946FF28AC
:1008100005D0491C2D2804D00024002008E0002029
:100820000BE00124F9E700EB800003EB4000491CDA
:100830000B78FF2BF7D104B14042002302931478C8
:1008400019461D462D2C01D02B2C04D1521C2D2CC9
:1008500013D000240294AA461478FF2C0FD00A2546
:10086000A3FB057801FB05814FF0000C03FB0C1185
:10087000521CE3194AEB0101EEE70124EAE7814447
:1008800053EA010002D019F5C87F06DA0398002167
:10089000C0E9001107B0BDE8F08F0025AE4E2F462D
:1008A000DFF8B882184600F025FACDE90001B9F169
:1008B000000002DAC9F1000400E004460023A74A60
:1008C0001AEB030B42EB045A12E0E00707D02A466A
:1008D000334638464146FFF75AFE074688462A46C1
:1008E000334610461946FFF752FE05460E46641081
:1008F000002CEAD1DDE90001B9F1000F5A46534658
:1009000006DAFFF7B6FE3A464346FFF7B2FE05E0C9
:10091000FFF73DFE3A464346FFF739FE029A0AB119
:1009200081F00041039AC2E90001B3E72DE9FF4FCE
:100930001F468DB0D7E901464FF0FF382E204546BF
:100940004FF000090B90B9696D1C0E988847396A01
:10095000824688470028F6D1BAF1FF3F0AD024F436
:10096000D064002E11DDBAF12B0F08D0BAF12D0F93
:100970000BD102E0404611B08DE744F48064B969C0
:100980006D1C0E9888478246761E6946600501D523
:100990002D2000E02B208DF8000001F1010B0DF15E
:1009A000200809E0B9696D1C0E98884782460F98A7
:1009B00044F40074761E0560002E02DDBAF1300F9B
:1009C000F0D00B998A453ED144F0800406E00F999F
:1009D000681CA9F1010944F400740860B9696D1C30
:1009E000761E0E98884782463028F0D02BE00B996F
:1009F0008A4505D1200603D444F08004761E18E011
:100A0000504603F068FE08B30DF11301761E44F45E
:100A100000748B4508D2AAF130000BF8010B2006B8
:100A200007D5A9F1010003E0200602D409F1010075
:100A30008146A00502D50F99681C0860B9696D1C34
:100A40000E9888478246002ED1DC53E0002E51DDFF
:100A5000BAF1650F02D0BAF1450F4BD1A00549D5C7
:100A6000B9696D1C24F44074761E0E98884782463E
:100A7000002E0CDD2B2804D0BAF12D0F07D144F441
:100A80008074B9696D1C0E9888478246761EE00511
:100A900001D52D2100E02B2108F8011BCDF82C8079
:100AA00021E00DF12901761E44F4007488450CD232
:100AB000AAF1300010F0FF0088F8000002D10B9975
:100AC000884509D908F1010806E0E00501D5244868
:100AD00001E042F20F708146B9696D1C0E9888479B
:100AE00082460F980560002E04DD504603F0F3FDAA
:100AF0000028D6D1F9690E988847FF208BF80000AE
:100B000088F800000020069007904B466A4608A926
:100B100006A8FFF777FEA00502D46FF001002AE7D0
:100B200014F0240F0AD0E00714D1DDE9061238686A
:100B3000031D3B600068C0E900120BE0DDE906011F
:100B400000F0E4F80146E00704D13868021D3A607D
:100B50000068016028460EE7000014400000F03FE6
:100B6000F1D8FFFF426842B1016811F8013B23B19F
:100B7000521EC0E90012184670470121C160881E4C
:100B8000704742685AB1C368016843B983688B42B1
:100B900005D0491E521CC0E90012002070474FF0DA
:100BA000FF3070470029A8BF7047401C490008BFAC
:100BB00020F00100704710B4B0FA80FC00FA0CF08D
:100BC00050EA010404BF10BC704749B1CCF12004C5
:100BD00021FA04F411FA0CF118BF01212143084352
:100BE000A3EB0C01CB1D4FEA00614FEA102042BF7E
:100BF000002010BC704700EBC35010440029A4BF74
:100C000010BC7047401C490008BF20F0010010BC18
:100C1000704710B5141E73F1000408DA401C41F14E
:100C2000000192185B411A4301D120F0010010BD70
:100C30002DE9F04D92469B4611B1B1FA81F202E0E6
:100C4000B0FA80F220329046FFF78CFB04460F4644
:100C500040EA0A0041EA0B0153465A46084313D0C2
:100C6000114653EA010019D0C8F140025046FFF77F
:100C700088FB05460E46504659464246FFF772FB32
:100C8000084305D0012004E020463946BDE8F08D38
:100C90000020054346EAE0762C4337430A98630573
:100CA000E40AA0EB08000022FD0A44EA47540A3097
:100CB00002D500200146E9E7010510196941DDE987
:100CC000084500196941BDE8F04DA2E77F2801D928
:100CD000002208E0064A02EB5002C007127800D159
:100CE000120902F00F0201209040084070470000F6
:100CF000B4A503080EB540F2334202920022CDE9BA
:100D000000221346FFF794FF03B000BD01F000433B
:100D100030B421F0004150EA010206D00A0DA2F5DC
:100D20006072C1F31301002A02DC30BC002070475E
:100D3000440F44EAC104C100E01830BC00EBC250CB
:100D4000FFF730BF70B58C1810F8015B15F0070382
:100D500001D110F8013B2A1106D110F8012B03E054
:100D600010F8016B01F8016B5B1EF9D12B0705D45C
:100D70000023521E0DD401F8013BFAE710F8013BA5
:100D8000CB1A921C03E013F8015B01F8015B521EC1
:100D9000F9D5A142D8D3002070BD000038B50F4866
:100DA00000226946006800900D4804F0E5FC10F050
:100DB000FF0F06D0020AC1B20AA003F0B9F872B65A
:100DC000FEE7074C00211C3CE06904F047FD20626F
:100DD0000021E06904F04CFD606238BD00A5030805
:100DE000440A002061695F6E6574776F726B5F63A0
:100DF0007265617465206572726F72202D2074793E
:100E000070653D256420636F64653D25640D0A00AF
:100E10002DE9F041194C0E46174600252DED028BA9
:100E2000BFEE008A216A4860626A5660E06904F099
:100E300029FD012809D0E06904F0F6FC020AC1B2DC
:100E40000FA003F075F872B6FEE7002406EB8400ED
:100E500090ED000AB4EEC80AF1EE10FA02DDB0EE31
:100E6000408A2546641C0F2CF0D30FB187ED008A11
:100E70002846BDEC028BBDE8F0810000280A002066
:100E800041492061695F6E6574776F726B5F72753F
:100E90006E206572726F72202D20747970653D2509
:100EA0006420636F64653D25640D0A00FEE7000061
:100EB0002DE9FF4F83B09A461099A1EB0A04DDE9B2
:100EC000111004F10108461A1398761C4FF444617E
:100ED0003546FFF7F7F9B8F11C0F444601D81C2E30
:100EE00018D9C8EBC800C6EBC6018000B0EB810F73
:100EF0000AD3C6EBC6001C24810001EB5801B1FBEC
:100F0000F8F555B9012508E000EB5600B0FBF6F402
:100F10001C257CB11C2C00D91C241C2D00D91C259F
:100F2000C4F11C00C5F11C01400802904808019062
:100F3000002030E00124F3E709FB06F00027B0FBB6
:100F4000F5F1119808440199009001EB090002990C
:100F5000C0EBC00001EB800B19E000BF07FB08F0FD
:100F6000049AB0FBF4F101EB0A00009901FB0201C5
:100F7000039800EB810090ED000A01F091FE1398B8
:100F80000BEB07017F1C00EB810080ED000AA742FC
:100F9000E4D309F10100A8428146CDD307B0BDE8F2
:100FA000F08F704772B6FEE7F0B50446C8074FF001
:100FB000000010D01E23012603F01F0706FA07F5D4
:100FC0000D4201D15B1EF7D27AB1082A0BD0102A4C
:100FD00006D0182A01D00120F0BD072BFBD204E077
:100FE000082BF8D201E0102BF5D223685961216853
:100FF0008B6823F0180313438B60F0BD10B5040019
:1010000010D0607F20B900202077204600F032F811
:1010100021790220607739B1D4E902122046FFF726
:10102000C3FF48B1012010BD216811484861206804
:10103000816821F0180181606079A0B12168206980
:101040000861012220686369816821F06001194309
:1010500081602068A369816821F080011943816063
:101060006277002010BD21684FF0FF30E8E70000F4
:10107000B71DC10408B500680649884208D1064872
:10108000016841F480510160006800F480500090D4
:1010900008BD000000300240303802402DE9F04128
:1010A000876D044600F07AF9064694F8350000256D
:1010B000022806D080206065012084F83450BDE805
:1010C000F0812068016821F0160101602068416903
:1010D00021F080014161206C08B9A06C20B120682A
:1010E000016821F0080101602068016821F0010118
:1010F00001600CE000F052F9801B052807D920217F
:101100006165032084F8350084F83450D7E72068FF
:101110000068C007EED194F85C203F200121904088
:10112000B86084F83510002084F83450C7E790F890
:101130003510022903D08021416501207047052127
:1011400080F835100068016821F00101016000207D
:10115000704700002DE9F84FDFF80CB20124032599
:101160004FF00F0A00220BF1040E00BF0B6804FAC7
:1011700002F63340B34278D10F7907F00307012F0D
:1011800001D0022F1AD187684FEA4209D1F80CC06A
:1011900005FA09F827EA08070CFA09FC4CEA070CDB
:1011A000C0F808C0476891F804C0B743CCF3001CEE
:1011B0000CFA02FC4CEA070CC0F804C00E79F643A6
:1011C000B6070BD0C6684FEA420C8F6805FA0CF8D8
:1011D00026EA080607FA0CF73743C7600E7906F0CF
:1011E0000306022E12D1D6084FEA427800EB86069B
:1011F00000960F69D6F820904FEAD8660AFA06FCE6
:10120000B74029EA0C063743009E37620F7906681B
:101210004FEA420C07F0030705FA0CF807FA0CF73F
:1012200026EA0806374307604E6816F4403F1CD094
:101230004E4E376847F480473760366822F003081F
:10124000970706F480460096494E3F0F4644B14644
:10125000D6F80868DFF81C810AFA07FC404526EA40
:101260000C0603D14FF0000C41E076E0DFF808C136
:10127000604502D14FF0010C39E0DFF800C1604554
:1012800002D14FF0020C32E0DFF8F4C0604502D129
:101290004FF0030C2BE0DFF8ECC0604502D14FF0BB
:1012A000040C24E0DFF8E0C0604502D14FF0050CEB
:1012B0001DE0DFF8D8C0604502D14FF0060C16E003
:1012C000DFF8CCC0604502D14FF0070C0FE0DFF82B
:1012D000C4C0604502D14FF0080C08E0DFF8B8C088
:1012E000604502D14FF0090C01E04FF00A0C0CFAF6
:1012F00007FC4CEA060CC9F808C84F68DBF8006028
:10130000FF0226EA030600D51E437746CBF80060AD
:10131000D1F804C0DEF800605FEA8C2C26EA0306F0
:1013200000D51E43DFF840C03E60ACF1040C4F68AE
:10133000DCF80060BF0326EA030600D51E430A4F0F
:10134000CCF80060083FD1F804C03E685FEACC3CAE
:1013500026EA030600D51E433E60521C102AFFF405
:1013600005AFBDE8F88F0000083C0140443802405A
:10137000003001400000024000040240000802402A
:10138000000C02400010024000140240001802400D
:10139000001C0240002002400024024001488068F6
:1013A00070470000940A00200248816802781144C6
:1013B00081607047940A0020032010B500F06EF899
:1013C0000F2000F005F800F023F8002010BD000009
:1013D00070B50D4D04464FF47A700C4A29781268A6
:1013E000B0FBF1F0B2FBF0F000F0F4FD48B9102CC6
:1013F00007D200222146501E00F030F800206C6019
:1014000070BD012070BD0000940A0020A00A0020D9
:101410000A4808B5016841F080510160006800F099
:10142000805000900548001D016841F48041016032
:10143000006800F48040009008BD00004038024081
:10144000002809DB410900F01F028900012001F199
:10145000E0219040C1F80001704700000E4BF0B44D
:101460001B680D46C3F30223C3F10706042E00D9FF
:101470000426191D072901D2002300E0DB1E0124E8
:1014800004FA06F19C40491E2940641E994014400C
:101490002143F0BC02F083BD0CED00E0064900F0F2
:1014A000070210B54FF6FF040868044B204040EADD
:1014B00002201843086010BD0CED00E00000FA05A2
:1014C0001848F8B5016841F0805101600068164C79
:1014D00000F080500090206840F480302060FFF7DA
:1014E0005DFF4FF47A76054605E000BFFFF756FF33
:1014F000401BB0420FD86068C003F7D5206840F4A5
:1015000000302060FFF74AFF054606E0FFF746FF80
:10151000401BB04201D90320F8BD60688003F5D5B7
:101520000020F8BD40380240007000402DE9F84F1F
:1015300004460078DFF824944FF000063746C007D1
:101540000ED0D9F8001021F40001C9F80010D9F824
:101550000010626B1143C9F80010606B00B90126DE
:10156000FE4D2068843500030ED5E16B286820F419
:10157000401008432860E06BB0F5801F01D010B127
:1015800002E0012600E0012720684FF4800BC00232
:101590000CD5216C286820F4400008432860206C9A
:1015A000584501D1012601E000B901272068C10199
:1015B00000D50126800666D5E8483830016841F03C
:1015C000805101600068DFF898A300F0805000901F
:1015D000DAF8001041F48071CAF80010FFF7DEFE5F
:1015E000804605E0FFF7DAFEA0EB080064287DD80E
:1015F000DAF80000C005F5D5DFF8608308F1680867
:10160000D8F8000010F440702AD0218E01F4407107
:10161000814225D0D8F80010D8F8002021F440717C
:1016200042F48032C8F80020D8F8002022F480323A
:10163000C8F80020C8F80010D8F80000C0070FD084
:10164000FFF7ACFE824607E0FFF7A8FEA0EB0A0119
:1016500041F288308142CAD8D8F800008007F3D51B
:10166000206BC0F3012103297ED0D9F8001021F4AA
:10167000F811C9F80010228ED8F80010C2F30B023E
:101680001143C8F800102078C00607D5286820F05C
:10169000807028602868A16B084328602188AF48C3
:1016A0008830490405D5626E016821F44031114348
:1016B00001602188090405D5A26E016821F440214A
:1016C000114301602168C90305D5E26E016821F468
:1016D0004011114301602168890305D5226F01681B
:1016E00021F4400111430160217800E034E1490612
:1016F00005D5626C016821F0030111430160217876
:10170000090605D5A26C016821F00C0111430160A6
:101710002188C90505D5E26C016821F0300111432B
:1017200001602188890505D5226D016821F0C0017D
:10173000114301602188490505D5626D016821F4D6
:101740004071114301602188090505D5A26D01682A
:1017500021F44061114301602188C90407D5E26D7D
:10176000016821F4405100E068E0114301602188E4
:10177000890405D5226E016821F4404111430160BE
:101780002168490205D5A26F016821F080611143EB
:10179000016021684FF0006A890209D5E26F016893
:1017A00021F0006111430160E16F514500D1012733
:1017B00021680A0700D50127490305D5626F016832
:1017C00021F04071114301602168090206D5D4F867
:1017D0008020016821F08051114301602168490196
:1017E00006D5D4F88420016821F00051114301602E
:1017F0002068000106D5D4F88810286820F0007011
:10180000084328602068C00006D5D4F88C102868EA
:1018100020F0806008432860DFF84891012E02D054
:10182000206880017ED5D9F800004E4620F0806007
:10183000C9F80000FFF7B2FD80460FE04A4AD9F828
:101840000030104023F4F8120243C9F8002012E7D8
:10185000FFF7A4FDA0EB080064287DD830680001E4
:10186000F6D421783D487C30C90712D0616B81B92C
:10187000237A62680168D0F800C09201C1F3014187
:1018800042EA0142CCF3036142EA016141EA037199
:10189000016021680A0303D5E26BB2F5801F04D012
:1018A000C9021AD5216C594517D16368016894F8AB
:1018B0000CC002689B01C1F3014143EA0141C2F33C
:1018C000027241EA0C6141EA027101602968626AB0
:1018D00021F01F01521E114329602168C90110D552
:1018E000238A62680168D0F800C09201C1F30361E5
:1018F00042EA034242EA0162CCF3027142EA017118
:101900000160216889010CD56168228A237B94F8E3
:1019100008C0890141EA024141EA036141EA0C71D0
:10192000016000E011E03168B04641F08061316053
:10193000FFF734FD064604E0FFF730FD801B642806
:101940000AD8D8F800000001F6D5E7B3D9F80000AE
:101950004E4620F0805009E07BE00000083802404D
:101960000070004000380240FFFCFF0FC9F8000083
:10197000FFF714FD074604E0FFF710FDC01B6428C5
:1019800067D83068C0438000F6D5216835480A031F
:1019900001D5E26B1AB1C9021DD5216CD9B96369B1
:1019A0000168277E02689B01C1F3014143EA0143BC
:1019B000C2F3027143EA076242EA017101602968D9
:1019C0006FF0FF0300E04BE0A26A21F4F85103EB53
:1019D0000222114329602168890212D5E16F514525
:1019E0000FD1238C6269016807689201C1F303611A
:1019F00042EA034242EA0162C7F3027142EA01711C
:101A000001602178090716D561690268D0F800C025
:101A10008B01277FC2F30362CCF3014143EA01410A
:101A200041EA026141EA077101602868E16A20F435
:101A3000403008432860306840F080503060FFF745
:101A4000ADFC044608E000BFFFF7A8FC001B6428BB
:101A500002D90320BDE8F88F3068C0438000F3D47A
:101A60000020F7E7883802402DE9F04705000F46CF
:101A700063D0444E306800F00F00B84209D230689D
:101A800020F00F0038433060306800F00F00B8429B
:101A900053D128683C4C810712D5400703D52068F4
:101AA00040F4E05020602878000703D5206840F417
:101AB00060402060A968206820F0F00008432060A2
:101AC0002878C0072AD0304968680839012810D022
:101AD0000968022810D0890700292EDA216821F030
:101AE000030101432160FFF759FC804641F2883928
:101AF0000DE009688903EFE78901EDE7FFF74EFC88
:101B0000A0EB0801494502D90320BDE8F0876868C9
:101B1000216801F00C01B1EB800FEFD1306800F0CB
:101B20000F00B8420BD9306820F00F003843306006
:101B3000306800F00F00B84201D00120E5E72878B6
:101B4000400705D5E968206820F4E050084320608C
:101B50002878000706D52869216821F4604141EA08
:101B6000C000206000F038F82168084AC1F3031172
:101B7000515CC8400649086006480068FFF728FC29
:101B80000020C2E7003C02400838024004A50308D8
:101B9000A00A0020980A0020044905480968006846
:101BA000044AC1F38221515CC840704708380240A2
:101BB000A00A002014A50308044905480968006824
:101BC000044AC1F34231515CC840704708380240B2
:101BD000A00A002014A50308154910B51548096886
:101BE00011F00C0213D01449042A0FD0082A0ED188
:101BF0000F4C241F2268236802F03F025B0207D5C6
:101C00002068C0F38810A0FB010106E0084610BD63
:101C10002168C1F38811A1FB00010023FEF708FB36
:101C20002168C1F30141491C4900B0FBF1F010BD2E
:101C3000083802400024F40040787D012DE9F84F77
:101C400004004FF000076ED02078DFF87CA3AAF1E3
:101C50000408C007A8F104054CD0DAF8001050467B
:101C6000C1F38101012908D00068C0F38100022876
:101C70000AD1D8F80000400206D52868800339D57B
:101C800060680028DFD035E06068B0F5803F0BD099
:101C900010B1B0F5A02F11D0286820F48030286052
:101CA000286820F4802002E0286840F48030286012
:101CB000606890B1FFF772FB06460AE0286840F4BE
:101CC00080202860F0E700BFFFF768FB801B6428D6
:101CD00072D828688003F7D50CE0FFF75FFB064653
:101CE00005E000BFFFF75AFB801B6428F0D8286886
:101CF0008003F7D42078800742D5DAF800105046E8
:101D000011F00C0F08D00068C0F3810002280BD13D
:101D1000D8F80000400207D42868800718D5E0688A
:101D2000012800D114E04AE1E0680028286817D0B3
:101D300040F001002860FFF731FB064605E000BFD8
:101D4000FFF72CFB801B0228C2D828688007F7D534
:101D50002069296821F0F80141EAC00028600FE0FD
:101D600020F001002860FFF719FB064605E000BFE0
:101D7000FFF714FB801B02281ED828688007F7D4C1
:101D80002078000729D5904861696C300029814688
:101D9000016812D041F001010160FFF7FFFA064629
:101DA00005E000BFFFF7FAFA801B022804D8D9F833
:101DB00000008007F6D510E089E021F00101016004
:101DC000FFF7ECFA064604E0FFF7E8FA801B02286A
:101DD0007DD8D9F800008007F6D4207840076BD56D
:101DE000DFF8E49109F13809D9F80000C0000BD4FC
:101DF000D9F8001041F08051C9F80010D9F800005E
:101E0000012700F08050009070480168C90512D485
:101E10000168834641F480710160FFF7BFFA06460E
:101E200005E000BFFFF7BAFA801B64284FD8DBF843
:101E30000000C005F6D5644EA068683601280AD0B7
:101E400008B1052811D0306820F0010030603068FA
:101E500020F0040002E0306840F001003060A0682B
:101E6000A0B1FFF79BFA83460CE0306840F0040015
:101E70003060F0E7FFF792FAA0EB0B0141F28830F7
:101E8000814268D830688007F4D50EE0FFF786FA03
:101E9000834607E0FFF782FAA0EB0B0141F288309E
:101EA000814258D830688007F4D42FB1D9F8001097
:101EB00021F08051C9F80010A069E0B3DAF80010F1
:101EC000C1F3810102294DD00228286800E042E0D8
:101ED00020F08070286003D0FFF760FA04463DE0F0
:101EE000FFF75CFA064604E0FFF758FA801B022869
:101EF00031D828688001F7D4D4E90921DFF8D0C0AF
:101F0000D4E9070694F830304F0894F82C10304389
:101F10000CEB074444EA8212104340EA016040EAB5
:101F20000370C8F80000286840F080702860FFF750
:101F300035FA044605E044E0FFF730FA001B0228BA
:101F400009D828688001F7D53BE000BFFFF726FAE3
:101F5000001B022802D90320BDE8F88F2868800101
:101F6000F4D42EE00128D8F8000028D0E16900F46C
:101F700080028A4223D1216A00F03F028A421ED1A8
:101F8000626A47F6C0710140B1EB821F17D1A16AA6
:101F90004FF0FF3200F4403302EB5101B3EB014F3D
:101FA0000DD194F82C1000F07062B2EB016F06D1E5
:101FB00094F8301000F0E040B0EB017F01D0012038
:101FC000CAE70020C8E7000008380240007000405F
:101FD0000000FFFF401EB0F1807F10B501D301204B
:101FE00010BD4FF0E02460610F21601701F0D7FFB2
:101FF0000020A0610721216110BD70B50446D0F812
:1020000080000025202801D0022070BD69B162B196
:102010000123236600206066204601F08DFE206EBD
:10202000012804D00125284670BD012070BD21681B
:1020300010200862216851E8000F40F0100041E8CC
:102040000002002AF6D1EEE730B400680B4A904255
:1020500012D10B484CF620329142A0F8221B03D239
:10206000A0F5404400236354012180F8251B30BCB7
:1020700004490548FFF7C1BF30BC7047001001405C
:102080006032022060720120FC66022070477047B7
:102090002DE9F04102680025044640F60F070226AC
:1020A000D06911689368384205D187067ED58F06BE
:1020B0007CD5A16E33E1DFF894C203F0010701EA99
:1020C0000C0C57EA0C0C71D05FEAC07C0CD05FEAB4
:1020D000C15C09D54FF0010CC2F820C0D4F88420AF
:1020E00042F00102C4F88420820709D5DA0707D03C
:1020F00022681662D4F8842042F00402C4F88420D6
:1021000042070AD5DA0708D0236804221A62D4F8F5
:10211000842042F00202C4F8842002070CD501F0AA
:1021200020023A4308D0236808221A62D4F8842097
:1021300042F00802C4F8842002050BD54A0109D5F3
:1021400023684FF400621A62D4F8842042F020021F
:10215000C4F88420D4F88420002A36D0800605D51F
:10216000880603D5A16E09B1204688472168D4F8B6
:1021700084008968490602D410F0280F27D0204631
:1021800001F0DDFB2068806840061BD52068083020
:1021900050E8001F21F0400140E80012002AF5D16C
:1021A000606F78B16A490165606F00E015E0FEF785
:1021B000BEFF002809D0606F016D00E02046BDE839
:1021C000F04108472046FFF762FFBDE8F081204656
:1021D000FFF75DFFC4F88450F7E7D4F860C020270C
:1021E000BCF1010F7ED15FEAC06C7BD55FEAC16CA8
:1021F00078D5102010622068806840064FD5626F45
:10220000FB00106840680004000C3CD0B4F8581083
:10221000814238D9A4F85A00D06998422BD020685E
:1022200050E8001F21F4807140E80012002AF6D126
:102230002068083050E8001F21F0010140E800123A
:10224000002AF5D12068083050E8001F21F0400135
:1022500040E80012002AF5D1C4F880702566216894
:1022600051E8000F20F0100041E80002002AF6D1EA
:10227000606FFEF713FF6666B4F85800B4F85A10A2
:10228000401A81B207E0B4F8581081429DD1D0695C
:1022900098429AD166662046FFF7D6FE95E7B4F8D5
:1022A0005800B4F85A10B4F85A20401A81B2002AE3
:1022B0008BD0002989D0226852E8000F20F490705A
:1022C00042E80003002BF6D1206800F1080050E836
:1022D000002F22F0010240E80023002BF4D1C4F8C3
:1022E000807000E00BE02566A566206850E8002FAE
:1022F00022F0100240E80023002BF6D1CAE7C60204
:1023000008D55B0206D54FF4801010622046FFF717
:10231000BDFE5AE7020606D50A0604D5E16E00297D
:102320007FF44CAF51E74006B8D54806B6D52046F5
:10233000026852E8001F21F0400142E80013002B20
:10234000F6D1C767C56600F007F93EE72001000433
:102350002F39000810B5040002D0E06F10B107E07B
:10236000012010BD002084F87800204600F026F8F7
:102370002420E0672068016821F001010160606AA3
:1023800010B1204601F01CFA204601F0BDFB0128E7
:10239000E7D02068416821F490414160206881685D
:1023A00021F02A0181602068016841F0010101608B
:1023B0002046BDE8104001F067BA000010B5AAB091
:1023C0000446142124A8FDF77DFF90216846FDF7FF
:1023D00079FF1D492068884233D1402000900024B5
:1023E00068461194FFF7A2F808B1FEF7DBFD174825
:1023F000016841F010010160006800F010002990B0
:1024000012481438016841F00101016000680DF1C3
:10241000900C022100F0010029904FF4C0600723C6
:102420008CE8130003220A48CDE9272324A9FEF7EC
:1024300091FE002201212520FFF710F82520FEF74C
:10244000FFFF2AB010BD00000010014044380240D8
:102450000000024070472DE9F8430446C06F9846DB
:1024600016460D46202802D00220BDE8F88395B11B
:102470008EB10021C4F884102120E067FEF78EFFA2
:102480008146A068A4F85060A4F852602027B0F5F7
:10249000805F02D003E00120E7E7206910B12E46FB
:1024A000002510E000260EE08021204601F0EEFC21
:1024B000C0B9D6B116F8010B21688862B4F8520091
:1024C000401EA4F85200B4F852004B464FF00002F0
:1024D000CDF800800028E7D14FF04001204601F000
:1024E000D5FC40B1E7670320BFE735F8020B216850
:1024F000C0F30800E1E7E7670020B6E7C36F202BD1
:1025000001D00220704781B17AB1A0F85020002399
:10251000A0F852208268C1642121C366C0F88430CB
:10252000C167B2F5805F02D003E001207047016906
:1025300061B10749C166026852E8001F41F080019D
:1025400042E80013002BF6D1002070470149F1E763
:10255000413E0008F13D0008704700002DE9F041C0
:1025600000E0401C0278202AFBD00D2AF9D00A2A6C
:10257000F7D0092AF5D02C2AF3D0D1B20023303974
:102580000A2979D210F8011F2029FBD00D29F9D092
:102590000A29F7D00929F5D02C29F3D011F0FF0F23
:1025A0006AD13F4C03203F4D2178012908D00229F0
:1025B00034D0032963D0052961D0042962D05BE0BF
:1025C000302A09D0312A23D0322A24D036A001F073
:1025D000AFFC00F087FB5EE0A168012906D0022075
:1025E000207041A001F0A4FC00260DE029681FE046
:1025F000711C814201D13BA200E04BA255F826108C
:102600004AA001F095FC761CA0688642F0D342E017
:1026100048A023703DE000F01FFE3CE0A7680026C4
:10262000A2F130010BE000BF55F826C08C4505D162
:10263000E16020704DA001F07BFC2CE0761CBE42D6
:10264000F2D3312AE4D0322AE5D058A001F070FC50
:1026500000260BE0711C814201D122A200E032A2CF
:1026600055F8261031A001F063FC761CA068864264
:10267000F0D310E0322ACED00020BDE8F081312A1C
:10268000F8D1C5E7302A08D0312AC1D0322AC2D0C9
:10269000504801F04DFC0120EFE700F0F3FFFAE7AE
:1026A000280A002044720120696E76616C696420FA
:1026B000636F6D6D616E642E2055736520303D72C1
:1026C00065777269746520636861722C20313D7290
:1026D00065777269746520616C6C2C20323D72657F
:1026E0007365742E0D0A00006D756C7469706C65ED
:1026F000206C6F772D636F6E666964656E6365200D
:1027000063686172732E20456E7465722063686120
:102710007220696E64657820746F207265777269C3
:1027200074653A20000000002C200000256C7525FF
:10273000730000007265777269746520616C6C3A91
:1027400020706C656173652073656E6420746865C4
:102750002077686F6C652065787072657373696F38
:102760006E20616761696E2E0D0A000072657772D6
:1027700069746520636861725B256C755D2E2050FD
:102780006C656173652073656E64206F6E65207281
:10279000657772697474656E2063686172616374D1
:1027A000657220696D6167652E0D0A00696E76613C
:1027B0006C696420696E6465782E20506C65617365
:1027C0006520656E746572206F6E65206F663A20B5
:1027D00000000000D8A60308FEE700002DE9F0473E
:1027E00000257A4B16468C4607462846A9462C46B5
:1027F0002A46A8460FE000BF5CF82810994208DA84
:1028000073A001F095FB4146BDE8F04775A001F0CB
:102810008FBB08F10108B045EED3052E01D27EA092
:1028200090E0B44206D2395D302903D339296FF0E4
:102830002F0307D982A085E005EB8505641C03EB17
:1028400045050D44B44204D2395D302901D33929FC
:10285000F2D9B44208D2395D2B2907D02D2905D0F1
:102860002A2903D02F2901D07DA06BE0641CB4423B
:1028700007D217F804C0BCF1300F02D3BCF1390FF6
:1028800008D97EA05EE000BF00EB8000641C03EB73
:1028900040006044B44207D217F804C0BCF1300FC6
:1028A00002D3BCF1390FEFD9B44204D217F804C0F7
:1028B000BCF13D0F01D079A044E0641CB44206D2C3
:1028C00017F804C0BCF12D0F01D10122641CB442E1
:1028D00007D217F804C0BCF1300F02D3BCF1390F96
:1028E00009D974A02EE000BF09EB8908641C03EB32
:1028F00048080CEB0809B44207D217F804C0BCF131
:10290000300F02D3BCF1390FEED9B44201D06FA021
:1029100018E00AB1C9F100092A290AD02B2904D0EC
:102920002D2904D02F290CD105E0054410E02D1AE3
:102930000EE045430CE020B195FBF0F100FB115196
:1029400021B168A0BDE8F04701F0F2BA95FBF0F5BF
:102950006EA0294601F0ECFA72A0494601F0E8FAAF
:10296000A945754D04D175A001F0E2FA002029E0D7
:102970002C6100E0641E4CB1381910F8010C3028AD
:1029800004D3381910F8010C3928F3D92C6134B16B
:10299000381910F8010C2D2801D1641E2C616CA08F
:1029A00001F0C6FA6EA001F0C3FA79A001F0C0FAF6
:1029B00080A001F0BDFA89A001F0BAFA29690420CB
:1029C000711A69612870BDE8F08700003333333F26
:1029D0006A756467653A20524557524954450D0A55
:1029E000000000007469703A20636861725B256CB6
:1029F000755D206C6F7720636F6E666964656E63CA
:102A0000652C20706C6561736520726577726974DE
:102A1000652E0D0A000000006A756467653A204F54
:102A20004E4C595F5245434F474E495A45445F4EBD
:102A30004F5F45585052455353494F4E0D0A0000C1
:102A40006A756467653A20494E56414C49445F4C6B
:102A50004546545F4E554D4245520D0A0000000058
:102A60006A756467653A20494E56414C49445F4F48
:102A700050455241544F520D0A0000006A75646778
:102A8000653A20494E56414C49445F5249474854A3
:102A90005F4E554D4245520D0A0000006A7564674D
:102AA000653A20494E56414C49445F455155414C89
:102AB0000D0A00006A756467653A20494E56414C1C
:102AC00049445F414E535745520D0A006A75646789
:102AD000653A20494E56414C49445F5441494C0D9A
:102AE0000A0000006A756467653A20494E56414CF9
:102AF00049445F4F50455241544F525F4F525F44DB
:102B000049564953494F4E0D0A00000063616C63FA
:102B1000756C6174656420616E737765723A202507
:102B2000640D0A007573657220616E737765723A81
:102B30002025640D0A000000280A00206A756467D9
:102B4000653A20434F52524543540D0A000000009D
:102B50006A756467653A2057524F4E470D0A000068
:102B60007469703A20616E7377657220697320779B
:102B7000726F6E672C20706C65617365207265776B
:102B80007269746520726573756C742E0D0A00008D
:102B9000636F6D6D616E6420303A20726577726983
:102BA000746520616E7377657220726573756C74DD
:102BB0000D0A0000636F6D6D616E6420313A207202
:102BC0006577726974652077686F6C6520657870C9
:102BD00072657373696F6E0D0A000000636F6D6D2F
:102BE000616E6420323A20726573657420666F727C
:102BF000206E6578742065787072657373696F6E86
:102C00000D0A00000A480021084B012210B503609C
:102C100001714171416102628161FEF7EFF90028A3
:102C200003D0BDE81040FEF7BDB910BD0030024032
:102C3000D8660220094808B5016841F080010160AA
:102C4000016801F080010091016841F0010101601B
:102C5000006800F00100009008BD0000303802401C
:102C60000D48002110B50B4C0C224FF41653046094
:102C7000C0E90131C160C0E904128161C161016232
:102C80004162FFF767FB002803D0BDE81040FEF764
:102C900089B910BD00100140FC660220FEE7FEE786
:102CA000B5EEC00AF1EE10FA02D29FED0B0A7047A2
:102CB00010EE100A4FF07E51884205DD9FED071A95
:102CC000C0EE010AB0EE600A10EE100A8842EEDD96
:102CD000B7EE000A704700000000000000007F43CC
:102CE000704700002DE9FC4117A001F021F91D4DAE
:102CF00000241D4E05F12808A6F11C0710E000BFB6
:102D000056F8241007EB810090ED000A17A0B7EEEB
:102D1000C00A8DED000B18F8012001F009F9641CC0
:102D2000A8688442ECD3012801D91FA100E023A1A7
:102D300023A001F0FDF82BA001F0FAF8BDE8FC415A
:102D400032A001F0F5B800006C6F7720636F6E66FB
:102D50006964656E63652064657465637465642E7B
:102D60000D0A0000280A0020447201206368617285
:102D70005B256C755D3D256320636F6E66696465D8
:102D80006E63653D252E33663A206E6F7420636C4A
:102D90006561722C20706C65617365207265777255
:102DA0006974652E0D0A000020287468656E206322
:102DB000686F6F736520696E646578290000000094
:102DC000636F6D6D616E6420303A20726577726951
:102DD000746520756E636C6561722063686172252D
:102DE000730D0A00636F6D6D616E6420313A20725D
:102DF0006577726974652077686F6C652065787097
:102E000072657373696F6E0D0A000000636F6D6DFC
:102E1000616E6420323A20726573657420666F7249
:102E2000206E6578742065787072657373696F6E53
:102E30000D0A000010B5040014D00F4845F2C0512F
:102E4000FDF740FA0C490722204600F0F1FA0B4A40
:102E5000011E516001D0072909D9BDE8104008A022
:102E600001F066B8BDE810400CA001F061B8BDE803
:102E7000104000F04FB90000A8C60020280A00202A
:102E8000496E76616C6964206368617220636F7556
:102E90006E743A20256C750D0A000000496E76614B
:102EA0006C696420696E7075743A20656D70747910
:102EB000206672616D652E0D0A0000002DE9F04755
:102EC000274C0646256915B16068854206D325A0C2
:102ED00001F02EF8BDE8F04700F0BEB92A4845F2EF
:102EE000C051FDF7EFF92849C5F10702304600F05F
:102EF0009FFA050006D0244F0026DFF890804FF49B
:102F0000446919E022A001F013F805202070BDE803
:102F1000F08700BF206906EB061101EB4611304433
:102F200007EB811100EB001202EB401208EB82105C
:102F30004A46FDF7AEF9761CAE42EBD32069012D6F
:102F40002844606001D91FA200E01FA229461FA0EB
:102F500000F0EEFF00202070BDE8F04700F0DAB886
:102F6000280A0020616E7377657220706F73697430
:102F7000696F6E20696E76616C69642C207265736E
:102F800065742E0D0A000000681C0120A8C60020F0
:102F90007265777269746520616E737765722066F9
:102FA00061696C65643A20706C6561736520736556
:102FB0006E6420616E7377657220696D6167652E3E
:102FC0000D0A00007300000000000000616E7377BE
:102FD0006572207570646174656420776974682017
:102FE000256C75206368617225732E2052652D72E1
:102FF00065636F676E697A696E6720657870726560
:103000007373696F6E2E0D0A0000000070B51B4CC3
:1030100005466168E068884206D319A000F088FF81
:10302000BDE8704000F018B91D4845F2C051FDF7E9
:1030300049F91B490122284600F0FAF9012805D078
:1030400018A000F075FF0320207070BDE0684FF4F9
:10305000446200EB001101EB4010214901EB8010AC
:103060000F49FDF716F9E1681EA000F061FF00208E
:103070002070BDE8704000F04DB80000280A002024
:103080007265777269746520696E64657820696E0F
:1030900076616C69642C2072657365742E0D0A006C
:1030A000681C012072657772697465206661696CBD
:1030B00065643A20706C656173652073656E642089
:1030C00065786163746C79206F6E652063686172E6
:1030D000616374657220696D6167652E0D0A000079
:1030E000A8C60020636861725B256C755D207570F1
:1030F00064617465642E2052652D7265636F676E1E
:10310000697A696E672065787072657373696F6E2E
:103110002E0D0A002DE9FC472C4C4FF00008DFF87B
:10312000B090454604F12807C4F8088031E000BF9C
:1031300005EB0510274A00EB4510274909EB8506EA
:1031400002EB80103246FDF763FE2049303151F822
:10315000202029461078785596ED000A1FA0B7EE7A
:10316000C00A8DED000B00F0E3FE2649306888426E
:1031700007DAA068164A411C1C3242F82050A160B0
:1031800006E02149884203DA20A0294600F0D0FE5B
:103190006D1C60688542CBD30C49454607F800801A
:1031A000283126A000F0C4FEA06828B101202070BC
:1031B000BDE8FC47FFF796BD2570626802B0034882
:1031C0000349BDE8F0472830FFF708BB280A002074
:1031D00028720120A8C60020883D02206368617221
:1031E0005B256C755D3A206C6162656C3D257320D2
:1031F000636F6E666964656E63653D252E33660D8B
:103200000A0000003333333F9A99593F7761726E59
:10321000696E673A20636861725B256C755D206337
:103220006F6E666964656E6365206973206E6F7486
:1032300020686967682E0D0A000000007265636FE0
:10324000676E697A65642065787072657373696FFB
:103250006E3A2025730D0A000B48002110B501704D
:1032600041608160C1608162C1621C210748FDF735
:1032700029F806481C211C30FDF724F8BDE8104051
:1032800003A000F055BE0000280A0020287201208B
:1032900072657365743A20726561647920666F7235
:1032A000206E6578742065787072657373696F6ECF
:1032B0002E0D0A00704700002DE9FF4F89B0DFF89E
:1032C0003CB1002417460E46814606948AE000254C
:1032D00013E000BF05FB064109EB810090ED000AF9
:1032E000FFF7DEFC10EE101A594505DD0020D84628
:1032F000A246CDE9074015E06D1CBD42EAD370E05F
:10330000002517E005FB064109EB810090ED000A5E
:10331000FFF7C6FC10EE100A40450ADDA246641C09
:1033200000200890B442EBD30020C346CDE9040747
:1033300023E06D1CBD42E5D30898401C0890F3E7DC
:10334000079D16E008FB065109EB810090ED000A8D
:10335000FFF7A6FC10EE100A584509DD05998845CF
:1033600001D2CDF814800499884501D9CDF8108098
:103370006D1C5545E6D908F10100B8428046DFD3FF
:10338000DDE9040181422AD8069800EB001101EB27
:1033900040110C9800EB8110DDE90412CDE9021018
:1033A000079B31464846CDE900A23A46FDF780FD2D
:1033B000DDE90401079A401AAAEB0201DDE90423C2
:1033C000401C491CCDE90032CDE90210DDE90612AE
:1033D0000BA0534600F0ACFD0698401C06900898E0
:1033E00000B1641CB44204D2169906988842FFF4D6
:1033F0006EAF06980DB0BDE8F08F0000CDCC4C3E0E
:10340000626F785B256C755D3A20783D256C752E72
:103410002E256C7520793D256C752E2E256C75201A
:1034200073697A653D256C7578256C750D0A000009
:103430002DE9F843042804463B4816460F462CD392
:103440000168B1F13F4F28D9D0ED010AB6EE000A6C
:1034500090ED021A70EE800AE41E31EE001ABCEE06
:10346000E00AFCEEC10A10EE105A10EE908A35B157
:10347000B8F1000F03D005FB08F0A04201D02BA04B
:103480001AE038A04246294600F052FD26483B4645
:10349000424629460C3000963DE04FF44471B4FB9F
:1034A000F1F201FB124262B11C20B4FBF0F100FB0F
:1034B0001141002924D03AA000F03AFD0020BDE8D7
:1034C000F883B4FBF1F5B54205D944A0324629464C
:1034D00000F02EFDF2E7002680460AE008EB8600A9
:1034E00090ED000AFFF7DCFB07EB8600761C80ED11
:1034F000000AA642F2D343A0294600F019FD0DE0D0
:10350000B4FBF0F44AA0214600F012FD06481C224C
:103510003B4621460096FFF7CFFE054653A02946BD
:1035200000F006FD2846CAE7280B0020496E7661A8
:103530006C696420696D61676520686561646572A6
:103540002E205573653A202D3120776964746820E8
:1035500068656967687420706978656C732E2E2EB3
:103560000D0A0000696E707574206D6F64653A20F5
:1035700068656164657220696D61676520256C7599
:1035800078256C752C207365676D656E74696E6740
:10359000206F6E20626F6172642E0D0A00000000C1
:1035A000496E76616C696420696E707574206C6513
:1035B0006E6774682E204E656564203738342A4E55
:1035C0002C2032382A572C206F72202D3120572082
:1035D0004820706978656C732E0D0A00496E76611B
:1035E0006C6964206368617220636F756E743A2041
:1035F000256C752C206D617820697320256C752EE3
:103600000D0A0000696E707574206D6F64653A2054
:10361000666978656420323878323820626C6F636E
:103620006B732C2063686172733D256C750D0A0005
:10363000696E707574206D6F64653A20696E666599
:103640007272656420323878256C7520696D616707
:10365000652C207365676D656E74696E67206F6E8B
:1036600020626F6172642E0D0A0000007365676D41
:10367000656E7465642063686172733A20256C75A9
:103680000D0A000010B50D4C206950B161688842E8
:1036900007D2616929B105202070012907D908A244
:1036A00006E008A000F044FC0020207010BD15A228
:1036B0001548BDE8104000F03BBC0000280A00207F
:1036C0007300000063616E6E6F74206C6F636174D1
:1036D0006520616E737765722063686172732C2058
:1036E000706C6561736520726577726974652077A7
:1036F000686F6C652065787072657373696F6E2E84
:103700000D0A000000000000F4A50308FDF74CBE00
:1037100030B593B034216846FCF7D4FD14210DA8D0
:10372000FCF7D0FD2048016841F08051016000683D
:1037300000F0805012901D48016841F44041016042
:1037400000680224192300F44040129001200893DD
:103750004FF4D87582050104CDE90642CDE909543C
:103760000B94CDE9000168460C94FEF767FA08B1A6
:1037700072B6FEE7FDF7A4FE08B172B6FEE70FAD24
:1037800000214FF4A0524FF4805385E80E000F2023
:10379000CDE90D0407210DA8FEF766F9002801D038
:1037A00072B6FEE713B030BD4038024000700040F2
:1037B0000248016841F470010160704788ED00E043
:1037C00090F82410090706D50168436B4A6822F473
:1037D00000421A434A6090F82410C90706D00168D5
:1037E000836A4A6822F400321A434A6090F824102F
:1037F000890706D50168C36A4A6822F480321A43F1
:103800004A6090F82410490706D50168036B4A689E
:1038100022F480221A434A6090F82410C90606D583
:103820000168836B8A6822F480521A438A6090F898
:103830002410890606D50168C36B8A6822F40052F9
:103840001A438A6090F82410490611D50168036C68
:103850004A6822F480121A434A60016CB1F5801F55
:1038600006D10168436C4A6822F4C0021A434A60D8
:1038700090F82410090606D50168826C486820F487
:1038800000201043486070472DE9F84300250446A6
:10389000C0F88450FDF782FD8046206820266FF036
:1038A0007E470068000712D50022434631042046B7
:1038B000009700F0EBFA50B1216851E8000F20F0BA
:1038C000800041E80002002AF6D1E66721E0206886
:1038D0000068400722D5002243464FF4800120466D
:1038E000009700F0D3FAC8B1206850E8001F21F417
:1038F000907140E80012002AF6D12068083050E8A4
:10390000001F21F0010140E80012002AF5D1C4F89F
:103910008060032084F87850BDE8F883E667C4F837
:10392000806025666566002084F87850F4E710B55D
:10393000806B0021A0F85A10FEF7A9FB10BD0168AA
:1039400051E8002F22F4907241E80023002BF6D1B9
:103950000168083151E8002F22F0010241E80023FC
:10396000002BF5D1016E012908D1026852E8001F31
:1039700021F0100142E80013002BF6D10021202293
:10398000C0F8802001668166704710B5D0F88010BD
:10399000B0F85C202229016804D0886940F0080052
:1039A000886110BD496A436D11401980416D891CC1
:1039B0004165B0F85A10491EA0F85A10B0F85A10D4
:1039C0000029EED1026852E8001F21F4907142E80C
:1039D0000013002BF6D10168083151E8002F22F0C6
:1039E000010241E80023002BF5D100212022C0F87C
:1039F00080208166416602685268120208D5036819
:103A000053E8002F22F0806243E80024002CF6D116
:103A1000026E012A02D0FEF71DFD10BD016602688C
:103A200052E8001F21F0100142E80013002BF6D1EC
:103A30000168CA69D243D20601D410220A62B0F8E2
:103A40005810FEF701FB10BD10B5D0F88010B0F88B
:103A50005C202229016804D0886940F00800886150
:103A600010BD496A436D11401970416D491C416593
:103A7000B0F85A10491EA0F85A10B0F85A10002990
:103A8000EED1026852E8001F21F4907142E8001361
:103A9000002BF6D10168083151E8002F22F0010215
:103AA00041E80023002BF5D100212022C0F880201E
:103AB0008166416602685268120208D5036853E8BD
:103AC000002F22F0806243E80024002CF6D1026E21
:103AD000012A02D0FEF7BEFC10BD0166026852E862
:103AE000001F21F0100142E80013002BF6D10168FD
:103AF000CA69D243D20601D410220A62B0F8581023
:103B0000FEF7A2FA10BD00002DE9F041044603685B
:103B1000C2698168D4E90450DFF8F0C17C4E2943C2
:103B20001F68002510437B4A014307EA0C070F4337
:103B30001F604FF400402168E7684B6823F440534E
:103B40003B434B602768A369216AD7F808C0194333
:103B50002CF430630B43BB602168B1420AD1116879
:103B600011F0030152D001297CD0022971D0032920
:103B70006ED184E0684B99420AD1116811F00C01B2
:103B800067D0042965D0082975D00C2960D176E06A
:103B9000624B99420AD1116811F0300159D01029B5
:103BA0006BD0202967D0302952D168E05C4B994214
:103BB0000AD1116811F0C0014BD040295DD0802995
:103BC00059D0C02944D15AE0564B99420DD11168C1
:103BD00011F440713DD0B1F5807F4ED0B1F5007F3A
:103BE00049D0B1F5407F33D149E04F4B99420FD1D5
:103BF000116811F4406109D0B1F5806F3DD0B1F585
:103C0000006F38D0B1F5406F22D138E0012120E0BB
:103C1000464B99420DD1116811F4405119D0B1F5BC
:103C2000805F2AD0B1F5005F25D0B1F5405F0FD19C
:103C300025E03F4B99420BD1116811F4404108D067
:103C4000B1F5804F19D0814215D0B1F5404F16D053
:103C50001021E369374A4FF6EF7683422ED10929C6
:103C600049D201E009E006E0DFE801F00B0E114562
:103C70001345454516000221EBE70421E9E7082139
:103C8000E7E7FDF789FF06E0FDF796FF03E0104642
:103C900002E0FDF7A1FF78B36168400000EB51003E
:103CA000B0FBF1F0A0F11001B14224D84FF6F0734F
:103CB0002168C0F342021840104320E009291AD2BB
:103CC000DFE801F005080B190D1919191000FDF7AF
:103CD00063FF06E0FDF770FF03E0104602E0FDF72A
:103CE0007BFF48B1616800EB5100B0FBF1F0A0F13F
:103CF0001001B14201D9012502E0216880B2C860FB
:103D00000020A066E0662846BDE8F081F369FFEF79
:103D1000001001409038024000440040004800403C
:103D2000004C00400050004000140140007800406A
:103D3000007C00400024F40030B583680024416515
:103D40004FF48055A0F85820AB42A0F85A204FF00D
:103D5000FF01846604D1026972BB40F2FF112BE0BF
:103D60004FF07F0233B3B3F1805F28D0A0F85C40FE
:103D70002221C0F88440C0F880100168083151E861
:103D8000002F42F0010241E80023002BF5D18168A9
:103D9000A94201D10169C9B1134902698166BAB169
:103DA000016851E8002F42F4907241E80023002B93
:103DB000F6D116E0036933B9A0F85C10D8E70169C1
:103DC00009B13F21F8E7A0F85C20D1E707498166F7
:103DD000026852E8001F41F0200142E80013002B66
:103DE000F6D1002030BD0000493A00088B390008A8
:103DF000C16F212910D1B0F8521071B1C16C0268A5
:103E00000988C1F308019162C16C891CC164B0F8D2
:103E10005210491EA0F852107047026852E8001F65
:103E200021F0800142E80013002BF6D1026852E82D
:103E3000001F41F0400142E80013002BF6D170470B
:103E4000C16F21290ED1B0F8521061B1C16C026866
:103E500009789162C16C491CC164B0F85210491EC6
:103E6000A0F852107047026852E8001F21F080014C
:103E700042E80013002BF6D1026852E8001F41F01F
:103E8000400142E80013002BF6D170472DE9F047BE
:103E9000994617460D460446089E4FF0000833E049
:103EA000701C31D0FDF77AFAA0EB0900B04218D8A7
:103EB000BEB120680168490726D5802D24D0402D49
:103EC00022D0C169C94309070DD4082505622046DF
:103ED000FFF735FDC4F88450012084F87880BDE8F0
:103EE000F0870320FBE7C069C04300050CD42168BC
:103EF0004FF4006008622046FFF721FD2021C4F83E
:103F0000841084F87880ECE72068C06935EA000006
:103F100004D00020B842C3D00020E0E70120F9E738
:103F20000148FEF7B5B80000FC660220FEE700007D
:103F30000FB4054B10B503A9044A029800F000FF26
:103F400010BC5DF814FB000065680008A80A00209A
:103F50000FB4084B10B504A902AA039800F0F0FEB4
:103F6000044602A9002001F082FA204610BC5DF848
:103F700014FB00006F5400084100080218BF042021
:103F80000A0E18BF40F001004FF07F4232EA0101F3
:103F900008BF40F00200012808BF0520704709074C
:103FA00000284FEA116104DB00F1E02080F80014E2
:103FB000704700F00F0000F1E02080F8141D7047FA
:103FC0009FED4B0A63E000BFD2ED003A91ED004A4D
:103FD00092ED013AD1ED011A04EE230A92ED022A84
:103FE000D1ED022A92ED031AD1ED030A92ED044AB3
:103FF00001EE830AD1ED043A92ED053AD1ED061AAD
:1040000002EE820AD1ED052A92ED062A00EE810A1F
:1040100092ED071AD1ED070A03EE840AD2ED083AB1
:1040200091ED094A02EE830A91ED083AD2ED0A2A8F
:1040300001EE820A91ED0A2AD2ED0B1A00EE810AF6
:10404000D2ED090A91ED0B1A03EE230AD2ED0C3AD8
:1040500091ED0D3A04EE200A91ED0C4AD1ED0E0AD5
:1040600002EE220A92ED0D2AD2ED0E2A01EE210A6D
:1040700092ED0F1AD1ED0F1A40314032103B04EE91
:10408000230A03EE020A00EEA20A01EE810A102BB7
:104090009AD21AE0D1ED000A92ED001AD1ED011A80
:1040A00092ED012A00EE810AD1ED020A92ED021A88
:1040B00001EE820AD1ED031A92ED032A103110327B
:1040C0001B1F00EE810A01EE820A042BE2D206E0F9
:1040D000F1EC010A5B1EB2EC011A00EE810A002B22
:1040E000F6D1D0ED000A30EE800A80ED000A70476C
:1040F000000000000000000030B583B0044600F06E
:1041000025F99FED090B05468DED000B0022214698
:104110006846FCF762F9284600F02EF99DED000B89
:1041200003B030BD000000000000000000000000EF
:1041300010B510EE104A4FF019406849002200EB0C
:1041400044002DED028B884257D8DFED650A14F04C
:10415000004F60EE200A14BF9FED621A9FED621AB5
:1041600071EE200AFDEEE00A10EE900A00EE900AD1
:10417000F8EEE00A9FED5D1A00EEC10A9FED5C1AB1
:1041800000EEC10ADFED5B0A9FED5B1A00EE201A1C
:10419000DFED5A0A40EE010A9FED591A594B00F023
:1041A000030100EE201A21EE000A7B4403EB810399
:1041B000D3ED000A544B7B4403EB810393ED001ACB
:1041C000524B41EE000A7B4403EB8101801091EDDC
:1041D000000A70EE800AEABB00EE100AB8EEC01AC0
:1041E000DFED4B1A9FED4B0ABDEC028B01EE210A6D
:1041F000BCEEC00A20EE200A10BD4FF0FF40A043E5
:104200001BD04FF0CE40B0EB440F82BF9FED420A6F
:10421000BDEC028B10BD4148B0EB440F28BF01221A
:1042200093D2022000F0A8F814F0004F15D0BDEC96
:10423000028BBDE8104000F081B814F5000F02BFFA
:104240009FED370ABDEC028B10BDBDEC028BBDE8C3
:10425000104000E007E000F065B8BDEC028BBDE85F
:10426000104000F063B800EBD07359104FF07E524D
:1042700002EBC15100EE101AA0EB630002EBC0503C
:1042800060EE200A00EE100A20EE208A18EE100AD6
:1042900088B118EE100AB0F1FF4F15D018EE100AD1
:1042A000FFF76AFE042808BF00F048F8B0EE480A9D
:1042B000BDEC028B10BD022000F05EF8BDEC028B5D
:1042C000BDE8104000F03AB8022000F055F8BDEC0F
:1042D000028BBDE8104000F029B800000000501E1D
:1042E0003BAAB840000000BF0000003F0070313E14
:1042F000F4FD053712BB2A3D12BB2A3EFFFFFF3EED
:10430000FFFF7F3FE6630300EA630300BA63030035
:104310000000004B00007E4E0000803F0000A085A2
:104320000000000030EE000A704700009FED020A16
:1043300020EE000A70470000000000709FED020AA6
:1043400020EE000A704700000000001001480068DD
:1043500070470000AC0A002002E008C8121F08C124
:10436000002AFAD170477047002001E001C1121FF6
:10437000002AFBD170470000014908607047000027
:10438000AC0A002010B54169044688472069A04264
:1043900000D1002010BD00002DE9F04F00260F468F
:1043A00099B00546B04634464DE000BFA868C4EB5E
:1043B000C4028946D0E9013C03EB82000B902D48F2
:1043C0000FAA02920CEBC40A51F8082F006A496840
:1043D0000C91110A61F31F201C21834604A8FBF7EE
:1043E00071FFD9F81800006801F06AF80490D9F854
:1043F0001800806805905FEA0A0009D0C0F80080C4
:10440000D9F80010416029B1498819B1012102E0B1
:10441000404603E00021016001B900200690D9F870
:1044200018001C2204A94068CDE9080B0C980A90DA
:104430000298FBF72EFF0B981C220FA9FBF729FF10
:10444000761CB6B2641C0DB1288800E00020A042A2
:1044500005D9686818B150F824100029A6D11EB1FA
:10446000A8684068386001E0C7F8008019B030469D
:10447000BDE8F08F1CA503082DE9F04F89460468BC
:1044800009A9DDE90C8AB9F9005091E880180BFB05
:104490000CF16943A4EB8101994201D23E4600E050
:1044A000002601EB8601994203EB870608D94545B2
:1044B00004D105E0B1EC010AA4EC010A8E42F9D85E
:1044C0000AFB0CF11388A8EB050C05EB0A0801FBAD
:1044D0000BF103EB0C0515800FFA88F304EB810157
:1044E00002E000BFA1EB87018E42FBD90160A9F871
:1044F0000030BDE8F08F000010B59FED0C1AD3ED31
:10450000000A01EB820400EB8200001F241F8C4292
:104510000BD394ED000AB4EEE00AF1EE10FA01D8E4
:10452000B0EE410A80ED000AEFE710BD0000000088
:104530002DE9FF5F82B00021DDE90430020DDDF8D6
:1045400040B0034318D044F61050A2F2FF32424369
:104550001514119801281FD0A5EB0B00401C5FEA31
:10456000000A4FF000064E4FDFF83891B046504633
:1045700015D5CAF1000413E0119801244AA30128BB
:1045800001D16FEA0B010298119AC0E90031C0E92C
:10459000024206B0BDE8F09FCBF10000DFE7044621
:1045A0000021404A491842EB0450CDE9001012E0C6
:1045B000E00707D032463B4640464946FBF7E7FF57
:1045C0008046894632463B4610461946FBF7DFFFD8
:1045D00006460F466410002CEAD1DDE90401DDE94E
:1045E0000023BAF1000F06DAFBF7D1FF42464B4633
:1045F000FBF7CDFF05E0FCF73CF842464B46FCF7E5
:1046000038F804460E460022284BFCF7B9F803D8C8
:104610004FF0FF30014607E00022254B204631468F
:10462000FBF70EFFFCF794F8102409E0002C0ADBDE
:104630000A220023FBF7FCFD039B30321A55641E4F
:1046400050EA0102F2D1641C039AC4F1110314442C
:10465000119A012A03D0012208430DD10AE0084330
:1046600004D000204FF0110B119072E7A3EB0B0563
:104670006D1E0DE05B4504DD4FF0000205F1010504
:1046800004E003DA4FF00002A5F10105002AECD0A6
:1046900002981199C0E90231C0E9004579E70000AC
:1046A000000014400000F03F300000000000F04324
:1046B0000000E03FC0F343424FF00001042A01D064
:1046C000082A06D1C0F3C612C0F341500121C240EE
:1046D00091400846704730380A2801D201207047BF
:1046E000002070472DE9F0478246089D25F0010023
:1046F000EC0803EB80099FED450A55E001C993EDF5
:10470000001A00F00F07C0F3031602EB870702EB55
:104710008606D3ED014AD6ED000AD7ED001AC0F3A4
:10472000072C00EE810A4FEA1C1C93ED025A02EBA3
:104730008C07C0F30328D7ED000A01EEA40A02EBB0
:10474000880693ED033AD6ED002AC0F3074C93EDAB
:10475000044A00EE850A4FEA1C1CC0F3034702EB33
:104760008C0C02EB87079CED002A02EE830A97ED82
:10477000001AD3ED053A060FD3ED064A02EB860682
:1047800002EE040AD6ED001AC0F3036093ED075A57
:1047900002EB8000203301EE230AD0ED000A641EF4
:1047A00001EEA40A00EE850A002CA7D116E000BF96
:1047B00011F8010B93ED002A93ED011A040900F0A2
:1047C0000F0002EB840402EB8000D4ED001AD0ED60
:1047D000000A083301EE820A00EE810A4B45E7D356
:1047E000E8070AD011F8010B93ED001A000902EB5B
:1047F0008000D0ED000A00EE810ADAED000A0846DA
:1048000030EE800A8AED000ABDE8F0870000000063
:10481000F0B504469FED3E0A059D03EB8500103878
:1048200027E00E7893ED001A4F7802EB8606D3ED61
:10483000012AD6ED000A02EB870611F802CF00EE3E
:10484000810A96ED001A02EB8C0791F801C093EDF6
:10485000022AD7ED000A02EB8C0601EE220AD3ED04
:10486000031A891C103300EE820AD6ED000A00EE0E
:10487000A10A8342D5D915F0030041D0012804D004
:1048800002280DD003283BD11EE011F8010B93ED57
:10489000001A02EB8000D0ED000A00EE810A2FE042
:1048A0000878D3ED001A4D78891C02EB8000D3ED17
:1048B000010A90ED001A02EB850001EE210A90ED4D
:1048C000001A01EE200A1BE0087893ED002A4D78CB
:1048D00002EB80008E7893ED011AD0ED001A02EB06
:1048E0008500D3ED020A01EE820AD0ED001A02EB38
:1048F0008600C91C01EE810A90ED001A01EE200A23
:10490000D4ED000A084630EE800A84ED000AF0BDBE
:104910000000000070B5054648880C46698888424A
:1049200002D9A2B1002070BD8AB100260BE06168F7
:10493000C6EBC6006A6801EB800102EB80001C2216
:10494000FBF7A7FC761C6088B042F0D801E06068F5
:1049500068606088688020882880012070BD000021
:1049600030B500B3F9B1F2B15268E2B10F4C13683F
:10497000A34203D00129026013D014E00023121DCA
:1049800007E000BF52F82350A54204D040F823505E
:104990005B1C8B42F6D38B4205D152F82300A04218
:1049A00001D1012030BD002030BD0000DECAFAA1D7
:1049B00070B506000D4614461AD0CCB1104600F072
:1049C00029FE00B16088A84212D10421002309E029
:1049D000C3EBC302606801EB8202805820B146F845
:1049E00023005B1CAB42F3D3AB4201D1012070BD6D
:1049F000002070BD0349884201D10120704700208A
:104A000070470000DECAFAA12DE9FE4F040092466D
:104A1000894603D0208E20B1656B03E00020BDE8FD
:104A2000FE8F0025217C00206083C94320838807F6
:104A300002D030221121DCE0B9F1000F62D0002D4C
:104A400060D02888C8B3D9F818000026D0F80080B4
:104A500056E0A868006800EB0610019052D060B3E1
:104A6000C6EBC6000290012109EB8000009000F027
:104A7000DBFD0246DBF8180041688A421AD8009A2A
:104A8000DBF80C309269DF68D2F80CC0674511D1B1
:104A90009F68D2F808C067450CD15B6852689342A2
:104AA00008D1006800F0FCFC0746584601F09EFF64
:104AB000874203D2182212219BE023E0DBF8180082
:104AC000006800F0FDFC0299C00159F82110B0EB1C
:104AD000C11F01D01922EEE70098406890B10098FC
:104AE0008069006880B14045414600D208465A4678
:104AF0008046DDE9001000F08FF806F101062DB1C7
:104B0000288804E01722D6E72122D4E70020B0420B
:104B100006D9686820B150F826B0BBF1000F98D1D3
:104B2000BAF1000F73D0208E012806D9656B0C35C1
:104B300003D0288808B1002657E0182258E0A8685A
:104B4000006800EB061B39D0BBF1000F36D0C6EB76
:104B5000C600019001210AEB8000009000F064FD86
:104B6000D9F8183059688842E7D8009AD9F80C006B
:104B70009269C768D2F80CC06745DED18768D2F861
:104B800008C06745D9D1406852689042D5D11868AD
:104B900000F086FC0746484601F028FF8742CCD348
:104BA000D9F81800006800F08BFC0199C0015AF890
:104BB0002110B0EBC11F03D0192219E0172217E012
:104BC000009840680028F9D000988069006870B1AA
:104BD0004045414600D20846009980464A4658461C
:104BE00000F01AF806F101063DB1288806E02122FE
:104BF0001321204600F0EEFF10E70020B04206D956
:104C0000686820B150F82690B9F1000F97D14FF0A5
:104C10000100A4F8188002E770B50E460446154658
:104C2000104601F0E3FEA0600146B0690068484309
:104C3000E06071686160726810442060A869026871
:104C4000920007D4D0E90223D21A11448160A969E5
:104C50006068C86070BD2DE9F0410025064620E07F
:104C6000B268816913680A6803EB0514920005D5E0
:104C70008968D4E9010202F0CBF908E0D1E9022306
:104C80006768D21A3A448A6080696168C16094E8B2
:104C9000070011446160814201D3E168411A6160FB
:104CA0006D1C0EB1308800E00020A84206D9706863
:104CB000002803D050F825000028D1D1BDE8F081AC
:104CC0002DE9F041002506462BE0B268886912689C
:104CD000036802EB05149A000FD58068D4E901122D
:104CE00002F096F9D4E90101084460602168884225
:104CF00001D3E068081A606012E0D4E90020A368DC
:104D000018446060904201D3E068101A60608A69BC
:104D1000D2E90237DB1B1844906089696068C8607B
:104D20006D1C0EB1308800E00020A84206D97068E2
:104D3000002803D050F825100029C6D1BDE8F08125
:104D40002DE9FF4F95B09B468946064600250FE2A8
:104D5000252877D100242746F84A0121059400E050
:104D6000044316F8013F203B01FA03F01042F7D14B
:104D700030782A2811D06FF02F033078A0F130025C
:104D8000092A16D8059A44F0020402EB820203EBCA
:104D900042021044761C0590EFE759F8042B059267
:104DA000002A03DA504244F40054059044F002040F
:104DB000761C30782E2816D116F8010F44F0040422
:104DC0002A280DD06FF02F023078A0F13003092B84
:104DD00009D807EB870302EB4303C718761CF3E7F8
:104DE00059F8047B761C30786C280FD006DC4C28F0
:104DF00017D068280DD06A2814D104E0742810D088
:104E00007A280FD10DE044F400140AE044F4801431
:104E100001E044F440147278824202D104F5801417
:104E2000761C761C307866280BD013DC582877D097
:104E300009DC002875D04528F6D04628F4D047284C
:104E40001AD19DE118E0632835D0642879D065280F
:104E500012D195E1702873D008DC6728F1D0692859
:104E60006FD06E280DD06F2806D1B5E073282CD0F6
:104E7000752875D0782874D05A46179990476D1CBC
:104E800075E1C4F30250022809D003280DD0D9F8E7
:104E9000001004280DD00D6009F1040967E1D9F86C
:104EA0000010EA17C1E90052F6E7D9F800100D80AA
:104EB000F2E70D70F0E719F8041B8DF800100020E0
:104EC0008DF80100EA46012003E059F804AB4FF0E9
:104ED000FF3061074FF0000102D40DE008F101013D
:104EE0008846B9420FDA8045F8DB1AF80810002925
:104EF000F4D108E008F1010188468142FADB1AF892
:104F000008100029F6D105985B46A0EB080721465A
:104F10003846179A00F094FA284400EB080507E099
:104F20004DE029E10DE01AF8010B5A461799904718
:104F3000B8F10108F7D25B4621463846179A13E1CB
:104F400042E00A220092C4F302524FF0000A022A01
:104F500008D059F804CB032A4FEAEC710AD00DE0CF
:104F600029E02AE009F1070121F00702F2E802C175
:104F7000914609E00FFA8CFC4FEAEC71042A03D148
:104F80004FFA8CFC4FEAEC71002907DA0A4600213F
:104F9000DCF1000C61EB02012D2202E0220504D5B8
:104FA0002B228DF80420012203E0E20701D0202209
:104FB000F7E7904659E00A2102E010220DE01021A7
:104FC0004FF0000A00910BE010224FF0000A44F06D
:104FD00004040827009203E008224FF0000A009220
:104FE000C4F30252022A05D059F804CB0021032A47
:104FF00008D009E009F1070121F00702F2E802C137
:10500000914605E01FFA8CFC042A01D10CF0FF0C3C
:105010004FF00008220728D5702806D0009B83F0A7
:10502000100353EA0A0305D00EE040228DF8042055
:10503000012208E05CEA010206D030228DF804204B
:105040008DF8050002229046009B83F0080353EA86
:105050000A030AD15CEA010201D1620705D53022B8
:105060008DF804204FF001087F1E582804D034A08A
:1050700003900EA802900DE036A0F9E75346604673
:10508000009AFBF7D5F884460398825C0298401E8C
:10509000029002705CEA0100F0D1029806A9081A99
:1050A00000F1200A600702D524F4803400E00127D3
:1050B000574502DDA7EB0A0000E0002000EB0A01E3
:1050C000009005984144401A0590E00306D45B46E1
:1050D0002146179A059800F0B3F90544002706E029
:1050E00001A85A46C05D179990476D1C7F1C474523
:1050F000F6DBE0030CD55B462146179A059800F0D5
:105100009FF9054404E030205A46179990476D1CDA
:105110000099481E00900029F5DC08E002980299E9
:105120005A460078491C0291179990476D1CBAF1B4
:105130000001AAF1010AF1DC65E100000928010083
:1051400030313233343536373839616263646566FD
:1051500000000000303132333435363738394142BF
:10516000434445460000000000F058F90544761C11
:10517000307800287FF4ECAD19B02846BDE8F08FF8
:10518000620700D4062709F1070222F0070CFCE8A9
:105190000223E14603F000485FEA080C02D00FF258
:1051A000702C0DE05FEA045C02D50FF2682C07E07A
:1051B0005FEAC47C02D00FF2602C01E0AFF2700C09
:1051C0004FF0FF3823F00043CDF850C065280CD0D5
:1051D00006DC452809D046281DD047283DD13DE0B2
:1051E000662818D067287ED138E00021112F01DB16
:1051F000112000E0781CCDE9000106A90EA8FFF7F8
:1052000097F9DDE90F010E9A03910021009207F151
:10521000010A04914DE04FF000400097CDE90110E4
:1052200006A90EA8FFF784F9DDE90F0203920E9B91
:1052300011990022DDF80CA00093049211B9791C99
:1052400000EB010AB7EB0A0004D4C0F1FF3007F10C
:10525000010A0490AAEB0700019044E0012F00DA54
:1052600001270021112F01DD112000E03846CDE992
:10527000000106A90EA8FFF75BF9DDE90F010E9A00
:105280000391002104910092BA4621070CD403999E
:10529000514500DA8A46BAF1010F05DD009AAAF1FC
:1052A0000101515C302908D0B84202DA10F1040F34
:1052B00006DA0121CDE9011015E0AAF10101E9E7C3
:1052C000002805DC049901440491AAEB000102E0E6
:1052D000411C514500DD8A460499401A401C01904A
:1052E0004FF000400290200704D40198504501DBA4
:1052F000CDF8048000208DF84F0002980DF14F0783
:10530000B0F1004F25D02B200E9002984FF00208EC
:1053100000280CDA404202902D200E9007E00A216E
:105320000298FBF709F83031029007F8011DB8F137
:105330000001A8F10108F2DC02980028EFD1791EE3
:105340000E980870307800F0200040F0450007F813
:10535000020D12A8C01B00F107081498007800B1D4
:10536000012000EB0A01019801EBE071059841442E
:10537000401A401E0590E00306D45B462146179A6A
:10538000059800F05DF805441498007818B15A4665
:10539000179990476D1CE00324D55B462146179A68
:1053A000059800F04DF805441CE00498002807DB40
:1053B000DDE90301884203DD0098405C179901E0B4
:1053C000179930205A469047049805F10105401C72
:1053D00004900198401E019004D12E205A4617993E
:1053E00090476D1CBAF10001AAF1010ADDDC05E06D
:1053F00017F8010B5A46179990476D1CB8F1000138
:10540000A8F10108F4DC5B462146179A0598ABE643
:105410002D0000002B000000200000002DE9F041CD
:10542000044600251E461746880404D405E0394684
:105430002020B0476D1C641EF9D52846BDE8F081D8
:105440002DE9F041044600251E469046C80301D5CB
:10545000302700E02027880404D505E0414638467F
:10546000B0476D1C641EF9D52846BDE8F0810A6876
:10547000531C0B601070704770B579B1C0F3C6153E
:10548000C0F341526943C91D21F00704D440FFF71E
:1054900011F900FB0540C01DC00870BD002070BDA3
:1054A00059B1C0F3C613C0F341525943C91D21F08D
:1054B0000700D040C01DC0087047002070470000A2
:1054C000C0F3434102294FF0400130B519D03B4AA7
:1054D00020F07E434D019C1A934263D028DC384A69
:1054E0009342A3EB02045DD018DC402B5BD0403B21
:1054F000B3F5802350D0802B3DD0B3F5806F52D1CF
:1055000034E0C0F3C051C0F3C612C90500F07F03F8
:1055100041EAC211194341F4802144E0A4F54074EA
:10552000F93C26D00F2C3AD0AC423CD125493AE088
:10553000254BE21A9C4229D00CDC244AA21813D035
:10554000B2F5F83F1FD0224BD2181AD0B2F5607FC7
:1055500029D112E0A2F54072F93A10D00F2A18D0E2
:10556000AA4220D11B491EE01B491CE01449C91F57
:1055700019E01A4917E01A4915E01A4913E01A49C7
:1055800011E01A490FE0194980390CE01549C91D8D
:1055900009E015490F3106E01149803903E00F4950
:1055A0000F3100E0114600F0804200F000530A4342
:1055B000134300F00060184330BD000040040600B3
:1055C000470404004010040007007E0000F483FF3D
:1055D000800FFEFF4010840040108200400804004D
:1055E000C00004004004840040088400C00084001F
:1055F00070B514460D46064600F00CF840B17068D0
:10560000C5EBC50110EB810002D04460012070BDE4
:10561000002070BD28B1416819B1408808B101204F
:105620007047002070470000020010B52AD01068B3
:10563000154BB3EBC01F03D0144BB3EBC01F01D10C
:10564000012000E0002008429069406802D01F302D
:1056500020F01F005369D9B2012900D000211B0A94
:1056600007E0012907D0946954F821406043491CA0
:105670001AB11C4602E00124F8E700248C42F0DC59
:10568000002800DC002010BD006000420060000225
:1056900009A108B50968009148B101789DF800207A
:1056A000914204D104226946FAF717FE08B100209E
:1056B00008BD012008BD0000038404842DE9F041E9
:1056C000066C0025816B0446C163CEB1D9B10120BF
:1056D000626CB0470CE00220626CB047E06BFEF7F2
:1056E00051FE0746626C0320E16BB0476D1CE76317
:1056F000E16B0029EFD106E0FEF744FE6D1CE0638C
:10570000E06B0028F8D12846BDE8F0810346002070
:10571000996B002908D00A69401CCB608A4203D0EB
:10572000002A01D01146F6E770472DE9F041846B5D
:10573000002594B1012600272079C00707D0216AEF
:10574000204611B18847304600E0384605442069BC
:10575000A04202D008B10446EEE72846BDE8F08139
:105760001CB500230522CDE90023024A012300F0E5
:10577000F7F81CBD180600202DE9F0438FB016463F
:105780000F4605460021FFF7EBFF10F0FF0F8046A4
:105790000AD1684600F034F818B100240DF10C0964
:1057A0000EE0286800F040F80FB0BDE8F08300BFBD
:1057B00057F8242021464846FFF71AFF641CA4B27C
:1057C0001FB1BDF80E00A042F2D800246F4607E0DA
:1057D00056F82420381D2146FFF70AFF641CA4B2A6
:1057E0001EB1BDF80600A042F2D82868694600F054
:1057F0001DF818B9286800F017F880464046D3E72E
:105800001FB500280CD00749D1E90023CDE90023BA
:10581000D1E90221CDE9022102A96A4600F034F85B
:1058200004B010BDC470000800F0E8B82DE9F041E4
:105830000D46064600F0F0F8041E0DD0294601F092
:10584000A9FA07462946204601F044FA00EA07046F
:10585000304600F06DF92040BDE8F08110B90248F3
:10586000024A026000F05AB8180600200001C0A1E8
:1058700010B90248024A026000F0B2B918060020CE
:105880000001C0A100F07CB910B570B169B162B17E
:10589000074C01230460D1E90041C0E90141D2E98C
:1058A0000012C0E90312184610BD002010BD000010
:1058B000DECAFAA1016810B1024A8A4300D0002072
:1058C000704700000001C0A130B44AB140B139B105
:1058D000074C1368A34206D130BC0C32FFF768B8FE
:1058E00030BC0020704730BC1C32FFF739B80000D4
:1058F000DECAFAA130B44AB140B139B1064C1368DE
:10590000A34206D130BC121DFFF752B830BC0020B4
:10591000704730BCFFF724B8DECAFAA1F8B50E46CE
:10592000FFF7C8FF04000AD000270097208E00B1BF
:10593000606B6946FEF730FD050006D00BE01022D3
:10594000114600F047F90020F8BD18222046112129
:1059500000F040F9009706B135800098F8BD0000CE
:105960002DE9F04F89B04FF0000A05005746214E4F
:105970009146DDE9121063F3070754469B460191F7
:1059800061F30F27039060F3174718D0C5F8009014
:1059900000F063F9B8B10022B046B68AC7F3072118
:1059A000F8B200F04EF900220746C6F30721F0B224
:1059B00000F047F9874208D0D8F804400EE0F069BB
:1059C00009B0BDE8F08F346808E00BA000680090D3
:1059D0006846FFF75DFE18B9D8F80840C5F800A082
:1059E0005846039A019900F02CF9C9F8080020469E
:1059F000E6E700001CA503080384048410B5FFF744
:105A000059FF20B1BDE810400C3000F020B901482A
:105A1000806910BD1CA503082DE9F04F91B00C461C
:105A2000FFF748FF050013D0B4B120683CA1FEF792
:105A3000E1FF06004FF0000B11D020680190D4E97F
:105A40000301CDE90401D4E90101CDE9020144E0FB
:105A5000002011B0BDE8F08F112210215DE0D4F8D4
:105A600004A001212046FFF7DFFDD4F820908046F6
:105A7000012104F11C001090FFF7D6FD2A491422E1
:105A8000074607A8FAF705FCB8F1000F4FF0010030
:105A900002D0ADF8220002E00024ADF822B0099453
:105AA0001FB11099ADF82A0002E00021ADF82AB02C
:105AB000B9F1000F0B9102D10FB1132206E0BAF138
:105AC000000F05D1B8F1000F02D01222102123E0FF
:105AD000142207A901A8FAF7DCFB144928688842B8
